{"abi":[{"type":"function","name":"SALT","inputs":[],"outputs":[{"name":"","type":"bytes32","internalType":"bytes32"}],"stateMutability":"view"},{"type":"function","name":"proof","inputs":[],"outputs":[{"name":"","type":"tuple","internalType":"struct Proof","components":[{"name":"seal","type":"tuple","internalType":"struct Seal","components":[{"name":"verifierSelector","type":"bytes4","internalType":"bytes4"},{"name":"seal","type":"bytes32[8]","internalType":"bytes32[8]"},{"name":"mode","type":"uint8","internalType":"enum ProofMode"}]},{"name":"callGuestId","type":"bytes32","internalType":"bytes32"},{"name":"length","type":"uint256","internalType":"uint256"},{"name":"callAssumptions","type":"tuple","internalType":"struct CallAssumptions","components":[{"name":"proverContractAddress","type":"address","internalType":"address"},{"name":"functionSelector","type":"bytes4","internalType":"bytes4"},{"name":"settleChainId","type":"uint256","internalType":"uint256"},{"name":"settleBlockNumber","type":"uint256","internalType":"uint256"},{"name":"settleBlockHash","type":"bytes32","internalType":"bytes32"}]}]}],"stateMutability":"pure"},{"type":"function","name":"proofPubKey","inputs":[{"name":"_message","type":"bytes32","internalType":"bytes32"},{"name":"_signature","type":"bytes","internalType":"bytes"}],"outputs":[{"name":"","type":"tuple","internalType":"struct Proof","components":[{"name":"seal","type":"tuple","internalType":"struct Seal","components":[{"name":"verifierSelector","type":"bytes4","internalType":"bytes4"},{"name":"seal","type":"bytes32[8]","internalType":"bytes32[8]"},{"name":"mode","type":"uint8","internalType":"enum ProofMode"}]},{"name":"callGuestId","type":"bytes32","internalType":"bytes32"},{"name":"length","type":"uint256","internalType":"uint256"},{"name":"callAssumptions","type":"tuple","internalType":"struct CallAssumptions","components":[{"name":"proverContractAddress","type":"address","internalType":"address"},{"name":"functionSelector","type":"bytes4","internalType":"bytes4"},{"name":"settleChainId","type":"uint256","internalType":"uint256"},{"name":"settleBlockNumber","type":"uint256","internalType":"uint256"},{"name":"settleBlockHash","type":"bytes32","internalType":"bytes32"}]}]},{"name":"_nullifier","type":"bytes32","internalType":"bytes32"}],"stateMutability":"pure"},{"type":"function","name":"recoverSigner","inputs":[{"name":"_message","type":"bytes32","internalType":"bytes32"},{"name":"_signature","type":"bytes","internalType":"bytes"}],"outputs":[{"name":"","type":"address","internalType":"address"}],"stateMutability":"pure"},{"type":"function","name":"setBlock","inputs":[{"name":"blockNo","type":"uint256","internalType":"uint256"}],"outputs":[],"stateMutability":"nonpayable"},{"type":"function","name":"setChain","inputs":[{"name":"chainId","type":"uint256","internalType":"uint256"},{"name":"blockNo","type":"uint256","internalType":"uint256"}],"outputs":[],"stateMutability":"nonpayable"},{"type":"function","name":"splitSignature","inputs":[{"name":"_signature","type":"bytes","internalType":"bytes"}],"outputs":[{"name":"r","type":"bytes32","internalType":"bytes32"},{"name":"s","type":"bytes32","internalType":"bytes32"},{"name":"v","type":"uint8","internalType":"uint8"}],"stateMutability":"pure"}],"bytecode":{"object":"0x6080604052348015600e575f5ffd5b50610f8c8061001c5f395ff3fe608060405234801561000f575f5ffd5b506004361061007b575f3560e01c8063a7bb580311610059578063a7bb5803146100fc578063ba9a91a51461012e578063faf924cf1461014c578063ffbc56381461016a5761007b565b806387cea3ae1461007f57806396be42bf1461009b57806397aba7f9146100cc575b5f5ffd5b61009960048036038101906100949190610691565b610186565b005b6100b560048036038101906100b0919061082b565b610263565b6040516100c3929190610b33565b60405180910390f35b6100e660048036038101906100e1919061082b565b610344565b6040516100f39190610b6b565b60405180910390f35b61011660048036038101906101119190610b84565b6103ae565b60405161012593929190610be6565b60405180910390f35b610136610413565b6040516101439190610c1b565b60405180910390f35b610154610437565b6040516101619190610c34565b60405180910390f35b610184600480360381019061017f9190610c4e565b61044c565b005b7f2ae215ce9fde588adfdea92976dc9aa45aa006a0f63942d8f9f21bd4537972a35f1c73ffffffffffffffffffffffffffffffffffffffff166387cea3ae826040518263ffffffff1660e01b81526004016101e19190610c9b565b6020604051808303815f875af11580156101fd573d5f5f3e3d5ffd5b505050506040513d601f19601f820116820180604052508101906102219190610ce9565b610260576040517f08c379a000000000000000000000000000000000000000000000000000000000815260040161025790610d6e565b60405180910390fd5b50565b61026b610543565b5f5f6102778585610344565b90505f73ffffffffffffffffffffffffffffffffffffffff168173ffffffffffffffffffffffffffffffffffffffff16036102e7576040517f08c379a00000000000000000000000000000000000000000000000000000000081526004016102de90610dd6565b60405180910390fd5b807f5fcc955ce46b31472a15ea7ff3f7506986b57f7b43cb980a7c25e2f4418f825560405160200161031a929190610e59565b60405160208183030381529060405280519060200120915061033a610437565b9250509250929050565b5f5f5f5f610351856103ae565b9250925092506001868285856040515f81526020016040526040516103799493929190610e84565b6020604051602081039080840390855afa158015610399573d5f5f3e3d5ffd5b50505060206040510351935050505092915050565b5f5f5f60418451146103f5576040517f08c379a00000000000000000000000000000000000000000000000000000000081526004016103ec90610f11565b60405180910390fd5b602084015192506040840151915060608401515f1a90509193909250565b7f5fcc955ce46b31472a15ea7ff3f7506986b57f7b43cb980a7c25e2f4418f825581565b61043f610543565b61044761052c565b905090565b7f2ae215ce9fde588adfdea92976dc9aa45aa006a0f63942d8f9f21bd4537972a35f1c73ffffffffffffffffffffffffffffffffffffffff1663ffbc563883836040518363ffffffff1660e01b81526004016104a9929190610f2f565b6020604051808303815f875af11580156104c5573d5f5f3e3d5ffd5b505050506040513d601f19601f820116820180604052508101906104e99190610ce9565b610528576040517f08c379a000000000000000000000000000000000000000000000000000000000815260040161051f90610d6e565b60405180910390fd5b5050565b610534610543565b61053c610543565b8091505090565b6040518060800160405280610556610575565b81526020015f81526020015f815260200161056f6105cb565b81525090565b60405180606001604052805f7bffffffffffffffffffffffffffffffffffffffffffffffffffffffff191681526020016105ad61062a565b81526020015f60018111156105c5576105c4610964565b5b81525090565b6040518060a001604052805f73ffffffffffffffffffffffffffffffffffffffff1681526020015f7bffffffffffffffffffffffffffffffffffffffffffffffffffffffff191681526020015f81526020015f81526020015f81525090565b604051806101000160405280600890602082028036833780820191505090505090565b5f604051905090565b5f5ffd5b5f5ffd5b5f819050919050565b6106708161065e565b811461067a575f5ffd5b50565b5f8135905061068b81610667565b92915050565b5f602082840312156106a6576106a5610656565b5b5f6106b38482850161067d565b91505092915050565b5f819050919050565b6106ce816106bc565b81146106d8575f5ffd5b50565b5f813590506106e9816106c5565b92915050565b5f5ffd5b5f5ffd5b5f601f19601f8301169050919050565b7f4e487b71000000000000000000000000000000000000000000000000000000005f52604160045260245ffd5b61073d826106f7565b810181811067ffffffffffffffff8211171561075c5761075b610707565b5b80604052505050565b5f61076e61064d565b905061077a8282610734565b919050565b5f67ffffffffffffffff82111561079957610798610707565b5b6107a2826106f7565b9050602081019050919050565b828183375f83830152505050565b5f6107cf6107ca8461077f565b610765565b9050828152602081018484840111156107eb576107ea6106f3565b5b6107f68482856107af565b509392505050565b5f82601f830112610812576108116106ef565b5b81356108228482602086016107bd565b91505092915050565b5f5f6040838503121561084157610840610656565b5b5f61084e858286016106db565b925050602083013567ffffffffffffffff81111561086f5761086e61065a565b5b61087b858286016107fe565b9150509250929050565b5f7fffffffff0000000000000000000000000000000000000000000000000000000082169050919050565b6108b981610885565b82525050565b5f60089050919050565b5f81905092915050565b5f819050919050565b6108e5816106bc565b82525050565b5f6108f683836108dc565b60208301905092915050565b5f602082019050919050565b610917816108bf565b61092181846108c9565b925061092c826108d3565b805f5b8381101561095c57815161094387826108eb565b965061094e83610902565b92505060018101905061092f565b505050505050565b7f4e487b71000000000000000000000000000000000000000000000000000000005f52602160045260245ffd5b600281106109a2576109a1610964565b5b50565b5f8190506109b282610991565b919050565b5f6109c1826109a5565b9050919050565b6109d1816109b7565b82525050565b61014082015f8201516109ec5f8501826108b0565b5060208201516109ff602085018261090e565b506040820151610a136101208501826109c8565b50505050565b610a228161065e565b82525050565b5f73ffffffffffffffffffffffffffffffffffffffff82169050919050565b5f610a5182610a28565b9050919050565b610a6181610a47565b82525050565b60a082015f820151610a7b5f850182610a58565b506020820151610a8e60208501826108b0565b506040820151610aa16040850182610a19565b506060820151610ab46060850182610a19565b506080820151610ac760808501826108dc565b50505050565b61022082015f820151610ae25f8501826109d7565b506020820151610af66101408501826108dc565b506040820151610b0a610160850182610a19565b506060820151610b1e610180850182610a67565b50505050565b610b2d816106bc565b82525050565b5f61024082019050610b475f830185610acd565b610b55610220830184610b24565b9392505050565b610b6581610a47565b82525050565b5f602082019050610b7e5f830184610b5c565b92915050565b5f60208284031215610b9957610b98610656565b5b5f82013567ffffffffffffffff811115610bb657610bb561065a565b5b610bc2848285016107fe565b91505092915050565b5f60ff82169050919050565b610be081610bcb565b82525050565b5f606082019050610bf95f830186610b24565b610c066020830185610b24565b610c136040830184610bd7565b949350505050565b5f602082019050610c2e5f830184610b24565b92915050565b5f61022082019050610c485f830184610acd565b92915050565b5f5f60408385031215610c6457610c63610656565b5b5f610c718582860161067d565b9250506020610c828582860161067d565b9150509250929050565b610c958161065e565b82525050565b5f602082019050610cae5f830184610c8c565b92915050565b5f8115159050919050565b610cc881610cb4565b8114610cd2575f5ffd5b50565b5f81519050610ce381610cbf565b92915050565b5f60208284031215610cfe57610cfd610656565b5b5f610d0b84828501610cd5565b91505092915050565b5f82825260208201905092915050565b7f4661696c6564206368656174636f646520696e766f636174696f6e00000000005f82015250565b5f610d58601b83610d14565b9150610d6382610d24565b602082019050919050565b5f6020820190508181035f830152610d8581610d4c565b9050919050565b7f696e76616c6964207369676e61747572650000000000000000000000000000005f82015250565b5f610dc0601183610d14565b9150610dcb82610d8c565b602082019050919050565b5f6020820190508181035f830152610ded81610db4565b9050919050565b5f8160601b9050919050565b5f610e0a82610df4565b9050919050565b5f610e1b82610e00565b9050919050565b610e33610e2e82610a47565b610e11565b82525050565b5f819050919050565b610e53610e4e826106bc565b610e39565b82525050565b5f610e648285610e22565b601482019150610e748284610e42565b6020820191508190509392505050565b5f608082019050610e975f830187610b24565b610ea46020830186610bd7565b610eb16040830185610b24565b610ebe6060830184610b24565b95945050505050565b7f696e76616c6964207369676e6174757265206c656e67746800000000000000005f82015250565b5f610efb601883610d14565b9150610f0682610ec7565b602082019050919050565b5f6020820190508181035f830152610f2881610eef565b9050919050565b5f604082019050610f425f830185610c8c565b610f4f6020830184610c8c565b939250505056fea264697066735822122083c9d9ffdc05dbf1e2190fddc8073f78e2efed3d5092ed45c6f52ae7a599289a64736f6c634300081c0033","linkReferences":{}},"methodIdentifiers":{"SALT()":"ba9a91a5","proof()":"faf924cf","proofPubKey(bytes32,bytes)":"96be42bf","recoverSigner(bytes32,bytes)":"97aba7f9","setBlock(uint256)":"87cea3ae","setChain(uint256,uint256)":"ffbc5638","splitSignature(bytes)":"a7bb5803"},"id":4}